:100000000C9456000C94B4000C94BF000C94CB00DC
:100010000C94D6000C9473000C9473000C94730031
:100020000C9473000C9473000C9473000C94730084
:100030000C9473000C9473000C9473000C94730074
:100040000C9473000C9473000C9473000C94730064
:100050000C9473000C9473000C9473000C94750052
:100060000C9473000C9473000C9473000C94730044
:100070000C9473000C9473000C9473000C94730034
:100080000C9473000C9473000C9473000C94730024
:100090000C9473000C9473000C9473000C94730014
:1000A0000C9473000C9473000C94730011241FBE05
:1000B000CFEFDAE0DEBFCDBF21E0AAE0B1E001C0C2
:1000C0001D92AF35B207E1F711E0A0E0B1E0EAEA36
:1000D000F9E002C005900D92AA30B107D9F70E944D
:1000E000A3020C94D3040C9400000F920FB60F924D
:1000F0001F9211242F933F938F939F93EF93FF931E
:100100008FEF85B920914A0181E090E001C0880F0E
:100110002A95EAF7809585B9E0914A01F0E0E15B24
:10012000FE4F80818F608BB9E0914A01F0E0E15B86
:10013000FE4F2081908134E0939FC0011124807391
:100140002370822B81BB80914A018F5F87708093DF
:100150004A01FF91EF919F918F913F912F911F90B5
:100160000F900FBE0F9018958F939F9381E090E0B2
:1001700090935A01809359019F918F9118951F92E6
:100180001FB61F92112410925A01109259011F900C
:100190001FBE1F9018958F939F9382E090E09093DD
:1001A0005A01809359019F918F9118958F939F9336
:1001B00083E090E090935A01809359019F918F9131
:1001C000189580EF8AB99FEF94B983E380BB8FE0E5
:1001D0008BB98DB38F608DBB9093690014BC83E0A5
:1001E00085BD81E080936E001092E20078940895BE
:1001F000EAE0F1E080E4DF011D928A95E9F70895D5
:100200000F931F93CF93DF934AE051E090E080E09B
:10021000C1E0D0E0FC01E15BFE4F1082DA0127E093
:1002200030E06D91613049F460818E01022E01C091
:10023000000F0A94EAF7602B60832150310988F798
:100240000196485F5F4F8830910521F7DF91CF918C
:100250001F910F910895CF93DF9386E090E00E9465
:10026000D002EC0190934E0180934D0186E090E026
:100270000E94D002FC0190934C0180934B0182E0DC
:1002800088838983FB83EA831D821C8293E09083A9
:10029000818313821282D583C483DF91CF91089525
:1002A00086E090E00E94D002FC01A0914D01B09147
:1002B0004E0115969C938E931497B383A283158257
:1002C000148290934E0180934D010895E0914D0169
:1002D000F0914E0131E0309709F408958081218139
:1002E00048E0849FC0011124865F9E4F820F911DBC
:1002F000DC013C930280F381E02DEDCFCF93DF93BF
:1003000080914D0190914E01FC01C281D3810097F3
:1003100059F410924E0110924D0110924C0110921E
:100320004B01DF91CF9108950E946603CE010A80B0
:10033000DB81C02DECCFE7E5F1E084E080838183B1
:1003400008950F931F93CF93DF93C8E0D0E00E94EE
:100350006004BE010E94A8028C010E946004BE01DC
:100360000E94A802F801FF2793E0EE0FFF1F9A9565
:10037000E1F7E65FFE4FE80FF11D9081913039F310
:100380000093570180935801DF91CF911F910F91F6
:100390000895E7E5F1E08081218138E0839FC00185
:1003A0001124865F9E4F820F911D21E0FC01208366
:1003B0000895FC01DB012091590130915A0122304E
:1003C0003105A9F040F48C91232B59F4811107C019
:1003D00087E08C9308952330310589F0089581508A
:1003E000F8CF873010F01C9208958F5FF2CF808194
:1003F000811103C087E0808308958150FCCF808104
:10040000873010F0108208958F5FF5CFE0914D0195
:10041000F0914E01309719F490E080E008959081BA
:10042000981303C09181961721F00280F381E02D8B
:10043000F1CF8FEF9FEF08950F931F93CF93DF932B
:1004400000D0CDB7DEB7E0914D01F0914E01808133
:100450008A8381818983A0914B01B0914C011496CC
:10046000ED91FC911597309779F5BE016F5F7F4F45
:10047000CE0102960E94D90109811A81602F812F35
:100480000E9406028F3F9807C1F080915701181310
:100490000AC080915801081306C0602F812F0E9466
:1004A00050010E94A101E0914D01F0914E018A811D
:1004B00080838981818390E080E00F900F90DF91AD
:1004C000CF911F910F91089580818C938181119616
:1004D0008C93DF01C4CFCF93C0E00E94F800C0FD31
:1004E00004C00E9466010E94C9010E9400012FEF12
:1004F00084E39CE0215080409040E1F700C0000080
:10050000CF5FC63051F7CF9108950E942B010E9412
:100510009B010E94F8000E9466010E94C9010E948E
:1005200000010E941C02019621F40E946B020C94AF
:100530007E018FEF91EE24E0815090402040E1F762
:1005400000C00000E6CF0E94E1000E948502FDCFBE
:1005500097FB072E16F4009407D077FD09D00E9470
:10056000BC0207FC05D03EF4909581959F4F0895FD
:10057000709561957F4F0895AA1BBB1B51E107C081
:10058000AA1FBB1FA617B70710F0A61BB70B881F23
:10059000991F5A95A9F780959095BC01CD010895B2
:1005A0000F931F93CF93DF939C01029710F422E0E7
:1005B00030E0E0915D01F0915E0190E080E0B0E01C
:1005C000A0E0309791F4009709F445C0821B930B8B
:1005D00084309105B8F58A819B816115710569F1B7
:1005E000FB0193838283FE0111C04081518102810E
:1005F000138142175307F0F04217530799F41097ED
:1006000061F012960C93129713961C933296CF01B9
:10061000DF91CF911F910F91089500935D01109389
:100620005E01F4CF009719F04817590718F4CA0172
:10063000BD01EF01DF01F801C4CF90935E0180930B
:100640005D01D1CFFE01E80FF91F2193319302978D
:1006500099838883DCCF80915B0190915C01892B29
:1006600041F4809102019091030190935C01809389
:100670005B018091000190910101009741F48DB7D9
:100680009EB74091040150910501841B950B409148
:100690005B0150915C014817590708F0B8CF841BE3
:1006A000950B8217930708F4B2CFB9016E5F7F4FA5
:1006B0008617970708F4ABCF640F751F70935C0122
:1006C00060935B01FA0121933193A1CFCF93DF9324
:1006D0009C010097E9F0FC01329713821282C091CD
:1006E0005D01D0915E01DE0190E080E02097A1F4F1
:1006F00080819181280F391F80915B0190915C016D
:100700008217930709F067C0F0935C01E0935B01E7
:10071000DF91CF910895DA01AE17BF0708F041C00D
:1007200012964D915C911397CD014115510599F7A2
:10073000DC011396FC93EE9312974D915D91A40FFB
:10074000B51FEA17FB0781F4208131812E5F3F4FEF
:10075000240F351FDC0111963C932E9322813381A7
:1007600013963C932E931297B0E0A0E08A819B8170
:100770000097B1F5FE0181919191E80FF91F8091E9
:100780005B0190915C018E179F0711F6109759F548
:1007900010925E0110925D01D0935C01C0935B01E9
:1007A000B7CFB383A28340815181240F351FA21795
:1007B000B30771F44E5F5F4F2D913C911197420F3B
:1007C000531F5183408312962D913C913383228392
:1007D000009709F0ADCFF0935E01E0935D0198CFF3
:1007E000DE01EC01C3CF13961C921E921297D4CF58
:1007F000CF92DF92EF92FF92CF93DF93CDB7DEB728
:100800002A970FB6F894DEBF0FBECDBF89879A87AF
:10081000A985BA852D913D914D915C9129833A83AB
:100820004B835C83232B242B252B41F424E239EDCD
:100830004BE557E029833A834B835C8369817A8156
:100840008B819C812DE133EF41E050E00E947004E8
:1008500069017A01A7EAB1E49B01AC010E948F040F
:1008600069837A838B839C83ACEEB4EFA7019601F6
:100870000E949D049B01AC0189819A81AB81BC815E
:10088000820F931FA41FB51FB7FF03C00197A109D3
:10089000B048E985FA8580839183A283B3839F77EB
:1008A0002A960FB6F894DEBF0FBECDBFDF91CF9171
:1008B000FF90EF90DF90CF9008950E94F803089585
:1008C00086E091E00E94F8030895B0E0A0E08093F4
:1008D000060190930701A0930801B09309010895C0
:1008E000052E97FB1EF400940E94870457FD07D045
:1008F0000E94A20407FC03D04EF40C948704509588
:100900004095309521953F4F4F4F5F4F08959095FB
:100910008095709561957F4F8F4F9F4F08950E94EE
:10092000C404A59F900DB49F900DA49F800D911DB0
:1009300011240895B7FF0C948F040E948F04821B2A
:10094000930B0895A1E21A2EAA1BBB1BFD010DC03B
:10095000AA1FBB1FEE1FFF1FA217B307E407F5076F
:1009600020F0A21BB30BE40BF50B661F771F881F4B
:10097000991F1A9469F760957095809590959B01E1
:10098000AC01BD01CF010895A29FB001B39FC0018A
:10099000A39F700D811D1124911DB29F700D811DAB
:0A09A0001124911D0895F894FFCF73
:0A09AA0000005F01200001000000C2
:00000001FF
